:100000000C945C180C9484180C9484180C94841828
:100010000C9484180C9484180C9484180C948418F0
:100020000C9484180C9484180C94A9230C94182410
:100030000C9484180C9484180C9484180C948418D0
:100040000C9484180C9484180C9484180C948418C0
:100050000C9484180C9484180C9484180C944A26DC
:100060000C9484180C9484180C9484180C948418A0
:100070000C9484180C9484180C9484180C94841890
:100080000C9494260C9484180C9484180C94841862
:100090000C9484180C9484180C9484180C94841870
:1000A0000C9484180C9484180C9484180408FBF1A4
:1000B000E0FF0C1000000000000000000000000045
:1000C00000000038383838383800000000000000E0
:1000D00000000000000000000000003F3F3F3F3FE5
:1000E0003F0000000000F0F0F0F0F0F0F0F0000051
:1000F0000000003F3F3F3F3F3F0000000208AC5C74
:10010000AC5FAC5F02085CAC5FAC5FAC80808080B1
:10011000808080808080808080800000E0F0F0E03F
:10012000C0C0C0C0C08000000FFFFFFFFFFFFFFF87
:10013000FFFFFFFFFFEFFE7EFFFFFFFFFFFFFFFF61
:10014000FFFFFE3C001F1F1F1F1F3F7F7F7F7F7F22
:10015000FBFFFFFEFFFFFFFFFFC783030703010055
:1001600000000000006070707E7F7F7F7F3F070788
:1001700007071F1F1F1F1F1F0F06000080808080A2
:10018000808080808080808080800000E0F0F0E0CF
:10019000C0C0C0C0C08000000FFFFFFFFFFFFFFF17
:1001A000FFFFFFFFFFEFFE7EFFFFFFFFFFFFFFFFF1
:1001B000FFFFFE3C001F1F1F1F1F3F7FFFFFFFFFB2
:1001C000FFFFFFFEFFFFFF7F1F0703030703010081
:1001D0000000000000060F1F1F1F3F3F1F070707FB
:1001E000077F7F7F7F7F7E707060000000000000CF
:1001F00000000000000000000000000000000000FF
:100200000000000000000000FEFCFCFCF8F8F0C05C
:1002100000000000000000000000000000000000DE
:1002200000000000FFFFFFFFFFFFFFFF7F7FFFFFDA
:10023000FEFEFCFCFCFEFE7FFFFFFFFEFCFE3E1C04
:10024000F87F3F3F1F0F05000000737F7F7F7F7F98
:100250007F7D7830000000010100000000000000F8
:10026000000000000000000000000000000000008E
:10027000000000000000000000000000000000007E
:10028000000000000000000000000000C0F0F8F8CE
:10029000FCFCFCFE1C3EFEFCFEFFFFFF7FFEFEFCA6
:1002A000FCFCFEFEFFFF7F7FFFFFFFFFFFFFFFFF66
:1002B000000000010100000030787D7F7F7F7F7F9C
:1002C0007F73000000050F1F3F3F7FF81C208080D8
:1002D0008080808080808080808080800000E0102E
:1002E000106040404040408000000FF00FFFFFFFD3
:1002F000FFFFFFFFFF0F706FD242C14642C0C20E28
:1003000000000001C23C001F10171717274747477E
:1003100047C0C4000102030202203C4482020402DE
:10032000010000000000006010101F0101010078B2
:10033000040404041E20201011110906000080800E
:100340008080808080808080808080800000E010BD
:10035000106040404040408000000FF00FFFFFFF62
:10036000FFFFFFFFFF0F706FD242C14642C0C20EB7
:1003700000000001C23C001F101717172747C7478E
:10038000474044000102030282601C04020204028E
:1003900001000000000000060911111020201E04B9
:1003A00004040478000101011E1010600000000028
:1003B000000000000000000000000000000000003D
:1003C00000000000000000000000C20C0404080847
:1003D00070C00000000000000000000000000000ED
:1003E00000000000000090085C2C301800804141A3
:1003F000818102020404040282418181810E04C2CF
:10040000221C88472420100B05000000730C0800F4
:10041000000002054830000000010100000000005B
:1004200000000000000000000000000000000000CC
:1004300000000000000000000000000000000000BC
:100440000000000000000000000000000000C0707C
:10045000080804040CC21C22C2040E81818141825E
:1004600002040404020281814141800018302C5CA6
:100470000890000000010100000030480502000063
:1004800000080C73000000050B1020244788043E70
:10049000FEFEFFFFFFFFFFFFFFF280CC9EDEFFFFAF
:1004A000FFFFFFFFFEFC700000000000237F7F7F46
:1004B0007F3F3F3F7FFF7FFFFFFF7FFFFFFFFFFF8C
:1004C000FDC08000000000000000000000000000EF
:1004D00000000000000000000007070707070707EB
:1004E00006008080C0C0C0E0E0E0F0F0E0CC9EDE1E
:1004F000FFFFFFFFFFFFFEFC70000000000003078E
:100500003F7F7F7F7F7F7FFFFFFFFFFFFFFFFFFFBB
:10051000FFFF7DF8FCFC7C380000000000000000BC
:100520000000000006070707070707070000000094
:1005300000000000000000000070FCFEFFFFFFFF55
:10054000FFFFDE9ECC80F2FFFFFFFFFFFFFFFEFEFE
:100550003E0400000080C0FDFFFFFFFFFF7FFFFFA4
:10056000FF7FFF7F3F3F3F7F7F7F7F2300000006AD
:10057000070707070707070000000000000000004A
:100580000000000000000000000000000070FCFE01
:10059000FFFFFFFFFFFFDE9ECCE0F0F0E0E0E0C0F9
:1005A000C0C080800000387CFCFCF87DFFFFFFFFAE
:1005B000FFFFFFFFFFFFFF7F7F7F7F7F7F3F0703FF
:1005C0000000000000000000000007070707070701
:1005D00007060000000000000000000000001C13DF
:1005E000043AC20A2909050505010DF2804C92D290
:1005F0002125694D0901028C700000000000235C78
:1006000041484828242460B94786848C458180006D
:1006100003033DC080000000000000000000000057
:1006200000000000000000000000000701000000C2
:1006300000010600808040404020A0A09010E04CC7
:1006400092D22125694D0901028C70000000000042
:1006500002043E7E3F5F47416090909A84C421012E
:100660000000838345888484443800000000000033
:10067000000000000000060100000000010700006B
:100680000000000000000000000000708C02010962
:100690004D692521D2924C80F20D010505050929ED
:1006A0000AC23A0400000080C03D03030080814577
:1006B0008C848647B9602424284848415C23000084
:1006C000000601000000000107000000000000001B
:1006D00000000000000000000000000000000070AA
:1006E0008C0201094D692521D2924CE01090A0A006
:1006F00020404040808000003844848488458383C3
:1007000000000121C4849A90906041475F3F7E3E83
:1007100004020000000000000000000007010000CB
:1007200000000106000000000000000000000000C2
:1007300004080C30030C001B001B0C0318061810D7
:1007400000000000000000000020400000402000E9
:100750000000000000000000000000000000000099
:100760000000000000000000000000000000000089
:100770000000000000000010002000001000200019
:100780001000000000000000000000000000000059
:100790000000000000000000000000000000000059
:1007A00000000000004000100000000210000000E7
:1007B0001000200000000000000000000000000009
:1007C0000000000000000000000000000000000029
:1007D00000000000004000000020040000000000B5
:1007E00000004000000000000000000002000000C7
:1007F00000000000000000000000000200000000F7
:1008000000000000000000000000000000000000E8
:1008100000000000000000000000000008000000D0
:1008200001000000000000000000002000000000A7
:1008300004080C03300C1B001B000618030C043EBC
:10084000FEFEFFFFFFFFFFFFFFF280CC9EDEFFFFFB
:10085000FFFFFFFFFEFC700000000000237F7F7F92
:100860007F3F3F3F7FFF7FFFFFFF7FFFFFFFFFFFD8
:10087000FDC080000000000000000000000000003B
:100880000000000000000000000707070707070737
:100890000600043EFEFEFFFFFFFFFFFFFFF280CCDD
:1008A0009EDEFFFFFFFFFFFFFEFC70000000000068
:1008B000237F7F7F7F3F3F3F7FFFFFFFFFFFFFFFE4
:1008C000FFFFFFFF7DF8FCFC7C380000000000000B
:1008D00000000000000006070707070707070000E1
:1008E00000000000000000000000043EFEFEFFFFCC
:1008F000FFFFFFFFFFFFFFFFFFFFFFFFFEFC70009A
:100900000000000000000000237F7F7F7F3F3FFF4B
:10091000FFFFFFFFFFFFFFFF7DF8FCFC7C380000BE
:10092000000000000000000000000607070707079E
:1009300007070000000000000000000000000000A9
:100940000004FEFEFEFEFEFEFEFEFEFEFEFEFC704F
:1009500000000000000000000000000000207FFFF9
:10096000FFFFFFFFFFFFFFFFFFFDF8FCFC7C3800EF
:10097000000000000000000000000607070707074E
:100980000707000000000000000000000000000059
:100990000070FCFEFFFFFFFFFFFFFFFFFFFFFFFFF9
:1009A000FFFFFEFE3E0400000000387CFCFCF87DEA
:1009B000FFFFFFFFFFFFFFFFFF3F3F7F7F7F7F23A3
:1009C0000000000000000000000000000000070719
:1009D00007070707070600000000000000000000EE
:1009E000000000000070FCFEFFFFFFFFFFFFDE9E27
:1009F000CC80F2FFFFFFFFFFFFFFFEFE3E04387CCE
:100A0000FCFCF87DFFFFFFFFFFFFFFFFFFFFFF7F05
:100A10003F3F3F7F7F7F7F230000000000000000FA
:100A2000000007070707070707060000000000008F
:100A300000000000000000000070FCFEFFFFFFFF50
:100A4000FFFFDE9ECC80F2FFFFFFFFFFFFFFFEFEF9
:100A50003E0400000080C0FDFFFFFFFFFF7FFFFF9F
:100A6000FF7FFF7F3F3F3F7F7F7F7F2300000006A8
:100A70000707070707070700000000000000000045
:100A8000000000000000000000001C13043AC20A2D
:100A90002909050505010DF2804C92D22125694DE9
:100AA0000901028C700000000000235C41484828C6
:100AB000242460B94786848C4581800003033DC0AF
:100AC00080000000000000000000000000000000A6
:100AD0000000000000000007010000000001060007
:100AE000043AC20A2909050505010DF2804C92D28B
:100AF0002125694D0901028C700000000000235C73
:100B00004148482824246091979E84C42101000014
:100B1000838345888484443800000000000000007E
:100B200000000000060100000000010700000000B6
:100B30000000000000000000043AC20A290905056F
:100B400005010D728025694D0901028C70000000BD
:100B5000000000000000235C41484828249490884D
:100B600049060000838345888484443800000000DF
:100B70000000000000000000060100000000010766
:100B80000000000000000000000000000000000461
:100B9000FA024A4A0A0A0A0A02FA04008C700000A1
:100BA0000000000000000000000000205F405252E2
:100BB00050505050405F2005888484443800000025
:100BC0000000000000000000060100000000010716
:100BD00000000000000000000000000000000070A5
:100BE0008C0201094D692580720D01050505092951
:100BF0000AC23A0400000000384484848845838394
:100C00000000064988909424284848415C2300004D
:100C100000000000000000000000000007010000CC
:100C200000000106000000000000000000000000BD
:100C3000000000708C0201094D692521D2924C8080
:100C4000F20D0105050509290AC23A0438448484D5
:100C50008845838300000121C4849E9791602424E9
:100C6000284848415C23000000000000000000000C
:100C70000701000000000106000000000000000065
:100C800000000000000000708C0201094D69252160
:100C9000D2924C80F20D0105050509290AC23A04D9
:100CA00000000080C03D0303008081458C8486479E
:100CB000B9602424284848415C2300000006010054
:100CC000000000010700000000000000000000001C
:100CD0000000000000000000000010B8F8FEFFFF58
:100CE000FFFFFFFFFEF8B81000000000000080C109
:100CF000C3F7FFFFFFFFFFFFF7C3C1800000000045
:100D00000003E7FFFFFFFFFF7F7FFFFFFFFFFFE71E
:100D100003000000000010B8F8FEFFFFFFFFFFFF18
:100D2000FEF8B810000000000070F8F9F3F7FFFFBC
:100D3000FFFFFFFFF7F3F9F8700000000000E0F09C
:100D4000F1FBFFFF7F7FFFFFFBF1F0E00000000001
:100D5000000000008CFEFFFFFFFEFEFCF8F0E0F05C
:100D6000E04000002070F0F0E0E1E3F3FFFFFFFF60
:100D7000F3F1E3E7020000000000000100CCFCFFFB
:100D8000FFFF1FBFFFFFE7C30000000000000000DF
:100D90008CFEFFFFFFFEFEFCF8F0E0F0E0400000FC
:100DA0001E3E7C78F0F1E3F3FFFFFFFFFBF1E3F77A
:100DB000F2783C1C0000000000CCFCFFFFFF1FBFCE
:100DC000FFFFE7C3000000001418000010A8682E01
:100DD00021AF2121A1212E68A810000000000000F1
:100DE000804142340808F1F1080834424180000093
:100DF00000000003E4181A1C6F807070806F1C1ACA
:100E000018E403000000000010A8682E115F111103
:100E100051112E68A810000000000070888912345B
:100E20000808F1F1080834128988700000000000F9
:100E3000E010111A6E807070806C1A1110E00000C2
:100E40000000000000008C72091549122A54A810F5
:100E5000A050A040000020509010A0A1A2920D0030
:100E6000000D029122E5020000000000000100CC0C
:100E7000343301F111A1421F24C30000000000001F
:100E800000008C72091549122A54A810A050A040E5
:100E900000001E2244489091A2920D00000D029184
:100EA00022959248241C0000000000CC343301F14C
:100EB00011A1421F24C30000000004040008000028
:100EC00008040800040904000002000000000000FB
:100ED0000000000000000000000000000000000012
:100EE0000000000000000000000080C0E8FCF8F0F6
:100EF000C0E0C080070F0F0F0F0F0F0F0F0700008C
:100F000000000000000000000000000000000000E1
:100F1000000000000000E0F8FC980000F8FEFFFE72
:100F2000FFFFFFFFFCF8030F0F0F0F0F0F0F0F0353
:100F300000000080000000000000000087FFFFF8B4
:100F4000C0E0C0000080FFFFFFFFFFFFF980FFFF50
:100F5000FFFFFFFFFFFFFFFF030F0F0F0F0F0F0F2D
:100F60000F0300003CFEFCC0000000000000FCFF7E
:100F7000FFFFFEFFCE00F8FCFFFFFFFFFFFFFFFCBF
:100F8000FFFFFFFFFFFFFFFFFFFF000F0F0F0F0F20
:100F90000F0F0F000A2400000000000000000000F6
:100FA0000000000000000000000000000000000041
:100FB000000000008040681408304020408007088E
:100FC0000000060C00000807000000000000000000
:100FD0000000000000000000000000000000000011
:100FE000E01864980000F806010601C0000704F844
:100FF000030C00000F0300000C0300000080000041
:10100000000000000000877807F84020C000008042
:101010007F0020071E067980FF000000E0800106A7
:1010200000FF030C0000030F00000C0300003CC293
:101030003CC0000000000000FC03003FF231CE0085
:10104000F80403000100083003FCFF000000FFF07B
:10105000000000FF000F0000000F00000F00000064
:101060000101010000183D7F7F7F3D183078FCFEB4
:10107000FC783007080000000000000018254240FE
:101080004225183048848284483003081F051F1FFA
:10109000151B1F11111F110E1F15111F05011F1107
:1010A0001D1F041F001F0010101F1F041B1F101006
:1010B0001F061F1F011F1F111F1F05071F311F1FA5
:1010C000051B17151D011F011F101F0F100F1F0CEF
:1010D0001F1B041B071C071915130C121E1F120CD3
:1010E0001E12120C121F0C1A14041F052E2A1E1F8A
:1010F000021C001D00201D001F041A011F001E04F9
:101100001E1E021E1E121E3E120C0C123E1E020657
:1011100014120A020F121E101E0E100E1E081E1AA6
:10112000041A2E281E1A12161F111F001F001D154B
:101130001711151F07041F17151D1F151D01011F6E
:101140001F151F17151F00170000100004083E0987
:10115000093E3F25251A1E2121123F21211E3F2530
:1011600025213F0505011E21293A3F04043F213F67
:1011700021001021211F3F040A313F2020203F027F
:10118000023F3F02043F1E21211E3F0909061E2186
:10119000112E3F09093622252519013F01011F2083
:1011A000201F0F10201F3F10103F3B04043B03047F
:1011B0003807312D2321102A2A3C3F2424181C22D1
:1011C00022141824243F1C2A2A2C047E05014C5288
:1011D000523E3F040438243D20004040443D3F0837
:1011E0001422213F20003E04043E3E04023C1C2207
:1011F000221C7E22221C1C22227E3E040204242A5F
:101200002A12021F22201E20201E0E10201E3E1019
:10121000103E360808364E50503E322A26221E29ED
:10122000251E223F2000322929261221251A0C0AC8
:101230003F08172525191E252518013905031A25EC
:10124000251A0629291E002F000000200000D5F0D5
:101250008D14A1C881CFD9F1AF20000A1003FDFE83
:1012600006DADA06FEFD03EFEEEDEDEDEDEDEDEE67
:10127000EF8040FDFDFDFDFDFDFDFDFDFDFDFDFDE6
:10128000FDFD3D1DCDE7F3FBF9F9AD55AD55AD5570
:10129000AD55ED3B87DDDDDDDD9D9D3D3D7D7DFD7E
:1012A000FDFDFDFDFDFDFDFDFDFD3DFD1D1DFDFDEE
:1012B0001D1DFD1D1DFD3D1D9D9D1D3DFD1D1DFD9E
:1012C000FD1D1DFDFD7DFD3D1D9D9D1D3DFD3D1D2E
:1012D0009D9D1D3DFD3D1D9D9D1D3DFD1D1D9D9D1E
:1012E0001D3DFD1D1D9D9D9D9DFD3D1D9D9D1D3D0E
:1012F000FDFDFDFFFFFFFFFFFFFFFFFFFFFF7F7F04
:101300007F3F00003FB5BF9FDFDFDFCD4A4D4A0D75
:101310002693B83E3F7FFFFFFFFFFFFFFFFFFEFE6C
:10132000FCF9F307FFFFFFFFFFFF00FF808079F963
:101330008080FF80807FC0809F998141FF8080797D
:10134000F98080FFFF987FCC88999981C37FC08006
:101350009F9F8FCF7FC0809F9F8040FF808079F1CB
:101360008084FF808099999F9F7FCC88999981C3C1
:10137000FFFFFFE7076BFBF70F0FF77B7BF0F0E05A
:101380008000000080E1FFFFFFFF3F8CE4F2FAFAEB
:10139000F6CF1FFF7FBCD8D1B337471F9F3FBFBFDA
:1013A0009F6FF3FCFFFFFFFFFFFFFEFEFEFFFEFE51
:1013B000FEFFFEFEFFFFFEFEFEFEFFFEFEFEFFFE48
:1013C000FEFEFFFFFFFFFFFEFEFEFEFFFFFFFEFE35
:1013D000FEFEFFFFFFFEFEFEFEFFFEFEFEFFFEFE28
:1013E000FEFFFEFEFEFEFEFEFFFEFEFEFEFEFFFF19
:1013F000FFFFFF81F8FFFFC780807FF1C398F1FFF7
:10140000FFFCFCFEFFFFFFFFFFFF801F7FFFFFE3EE
:10141000C14983FE009383C7FFFF7C00D80092BAC6
:10142000B5363635330FFFFFFFFFFFFFFFFFFFFF2E
:10143000FFFFFFFFFFFFFFFFFFFFFFFFFFFFFFFFBC
:10144000FFFFFFFFFFFFFFFFFFFFFFFFFFFFFFFFAC
:10145000FFFFFFFFFFFFFFFFFFFFFFFFFFFFFFFF9C
:10146000FFFFFFFFFFFFFFFFFFFFFFFFFFFFFFFF8C
:10147000FFFFFFFFFFFFFFFFFFFFFFFCF1071FFF65
:10148000FFFFFFFFFFFFFFFFFEFFFBFF767EFCFC81
:10149000FCFFFFFFFEF1E3DB99341E008081E3F3E4
:1014A000F7FFFFFF3FC4FBFFFFFFFFFFFFFFFFFF53
:1014B000FFFFFFFFFFFFFFFFFFFFFFFFFFFFFFFF3C
:1014C000FFFFFFFFFFFFFFFFFFFFFFFFFFFFFFFF2C
:1014D000FFFFFFFFFFFFFFFFFFFFFFFFFFFFFFFF1C
:1014E000FFFFFFFFFFFFFFFFFFFFFFFFFFFFFFFF0C
:1014F000FFFFFFE38F3F7F3F3F1F0F07F3FCFFFF1F
:10150000FFFFFFFFFBF7F77777BF9797B3B0444E26
:101510009F9F0F8F9F9F3F3F7F7F7E7EFCFCF9FB4D
:10152000078FFFF0E0C60EFDFDFBF7F7EFEFEFDFF3
:10153000DFDFDFDFBFBFBFBFBFBFBFBFBF7F7F7FFB
:10154000FFFFFFFFFFFFFFFFFFFFFFFFFFFFFFFFAB
:10155000FFFFFFFFFFFFFFFFFFFFFFFFFFFFFFFF9B
:10156000FFFFFFFFFFFFFFFFFFFFFFFFFFFFFFFF8B
:10157000FFFFFF03030000000000008007FFFFFFE4
:10158000FFFFFFFFFF0F0100000103070F1F3F3E9A
:101590007E7D79F2768E7E0C000000000004041C33
:1015A0003E3F7F7F7F1F80FFFFFF7F0F83FFFFFF97
:1015B000FFFFFFFFFFFFFFFFFFFFFFFFFFFFFFFE3C
:1015C000F80107FFFFFFFFFFFFFFFFFFFFFFFFFF28
:1015D000FFFFFFFFFFFFFFFFFFFFFFFFFFFFFFFF1B
:1015E000FFFFFFFFFFFFFFFFFFFFFFFFFFFFFFFF0B
:1015F000FFFFFF00000000000000E0FFF8801FFF79
:10160000FFFFFFFFFFC0C69C387870E0C0408040FD
:10161000300804020100000000000000000000800B
:1016200080C0C0E0E2F7E7E7F9FCFCFEBFBF7F7FC8
:101630007F3F3F3FBF9FCFC7E3F3FFFF3F9FC7F30E
:10164000BDBEBFBFBFBFBFBFBFBFBFBFBFBFBFBFAD
:10165000BFBFBFBFBFBFBFBFBFBFBFBFBFBFBFBF9A
:10166000BFBFBFBFBFBFBFBFBFBFBFBFBFBFBFBF8A
:10167000BFBFBF10033200930232000B0232007072
:101680000332005D01320026013200EE013200C457
:10169000003200A500320083003200DC0032005727
:1016A000003200490032007B0032007B0032000033
:1016B0000014007B003200000014007B00320000A8
:1016C00080AF00140088011400008003081F111F60
:1016D000001F001D151711151F07041F17151D1FCB
:1016E000151D01011F1F151F17151FFFFFFFFFFF0E
:1016F000FFFFFFFFFFFFFFFFFFFFFFFFFFFFFFFFFA
:10170000FFFFFFFFFFFFFFFFFFFFFFFFFFFFFFFFE9
:10171000FFFFFFFFFFFFFFFFFFFFFFFFFFFFFFFFD9
:10172000FFFFFFFFFFFFFC1F1F3F3F3F3F3F3F3FCC
:101730003F3F3F3F3F3F3F3F3F3F3F3F3F3F3F3FB9
:101740003F3F3F3F3F3F3F3F3F3F3F3F3F3F3F3FA9
:101750003F3F3F3F3F3F3F3F3F3F3F3F3F3F3F3F99
:101760003F3F3F3C0EFF01FDFDFDFDFD0DF5B52D9D
:10177000FD0DB5B50DFD05EDDDED05FD05B5B5F5C9
:10178000FDFDFD0DF5F50DFD05FDFDFD05FD05B5A9
:10179000B5F5FD05B5B54DFDFDFDFDFDFDFD0107F3
:1017A000FC1F10372727272726252526272427270C
:1017B00024272427272724272425252527272726CC
:1017C00025252627272625262727242525252724BE
:1017D0002727242727272727272720203F8008FF80
:1017E000FFFFFFFFFFFFFFFFFFFFFFFFFFFFFFFF09
:1017F000FFFFFFFFFFFFFFFFFFFFFFFFFFFFFFFFF9
:10180000FFFFFFFFFFFFFFFFFF80809CA29A808009
:10181000BC0ABC00A4AA92808080A4AA928082BE46
:101820008280BC8ABC8082BE8280BE009C229C805A
:10183000BE8CBE8080FFFFFFFFFFFFFFFFFFFFFFAB
:10184000FFFFFFFFFFFFFFFFFFFFFFFFFFFFFFFFA8
:10185000FFFFFFFFFFFFFFFFFFFFFFFFFFFFFFFF98
:10186000FFFFFFFFFFFFFFFFFFFFFFFFFFFFFFFF88
:10187000FFFFFFFFFFFFFFFFFFFFFFFFFFF8F4E8A1
:10188000D4A854A854A854A804F0F4F0F4F0747048
:101890007470747074707470747074707470747028
:1018A00074F0F4F0F4F0F470747074707470747018
:1018B000F4F0F4F0F4F004A854A854A854A8D4E820
:1018C000F4F8FFFFFFFFFFFFFFFFFFFFFFFFFFFF3A
:1018D000FFFFFFFFFFFFFFFFFFFFFFFFFFFFFFFF18
:1018E000FFFFFFFFFFFFFFFFFFFFFFFFFFFFFFFF08
:1018F000FFFFFFFFFFFFFFFFFFFFFFFFFFFFFFFFF8
:10190000FFFFFFFEFDFEFDFE00FFFFFFFF00FFFDEE
:10191000FFFDFFFDFFFDFFFDFFFDFFFDFFFDFFFDE7
:10192000FF00FFFFFFFF00FFFDFFFDFFFDFFFDFFCD
:1019300000FFFFFFFFFF00FEFDFEFDFEFFFFFFFFBC
:10194000FFFFFFFFFFFFFFFFFFFFFFFFFFFFFFFFA7
:10195000FFFFFFFFFFFFFFFFFFFFFFFFFFFFFFFF97
:10196000FFFFFFFFFFFFFFFFFFFFFFFFFFFFFFFF87
:10197000FFFFFFFFFFFFFFFFFFFFFFFFFFFFFFFF77
:10198000FFFFFFFFFFFFFFFF00FFFFFFFFFCFBFB71
:10199000FBFBFBFBFBFBFBFBFBFBFBFBFBFBFBFB97
:1019A000FBFCFFFFFFFF00FFFFFFFFFFFFFFFFFF4D
:1019B00000FFFFFFFFFF00FFFFFFFFFFFFFFFFFF35
:1019C000FFFFFFFFFFFFFFFFFFFFFFFFFFFFFFFF27
:1019D000FFFFFFFFFFFFFFFFFFFFFFFFFFFFFFFF17
:1019E000FFFFFFFFFFFFFFFFFFFFFFFFFFFFFFFF07
:1019F000FFFFFFFFFFFFFFFFFFF1E9D1A951A95151
:101A0000A951A95109E1E9E1E9E1E9E1E9E1E9E106
:101A1000E9E1E9E1E9E1E9E1E9E1E9E1E9E1E9E176
:101A2000E9E1E9E1E9E1E9E1E9E1E9E1E9E1E9E166
:101A3000E9E1E9E1E9E1E9E1E9E10951A951A95166
:101A4000A951A9D1E9F1FFFFFFFFFFFFFFFFFFFF52
:101A5000FFFFFFFFFFFFFFFFFFFFFFFFFFFFFFFF96
:101A6000FFFFFFFFFFFFFFFFFFFFFFFFFFFFFFFF86
:101A7000FFFFFFFFFFFFFFFFFFFFFFFFFFFFFEFD79
:101A8000FAFDFAFD00FFFFFF01FEEAF6EAF6EAF6CC
:101A9000FAF6FAFEFEFEFEFEFEFEFEFEFE01FFFF71
:101AA000FF01FEEAF6EAF6EAF6FAF6FAFEFEFEFEB6
:101AB000FEFEFEFEFEFE01FFFFFF00FDFAFDFAFD49
:101AC000FEFFFFFFFFFFFFFFFFFFFFFFFFFFFFFF27
:101AD000FFFFFFFFFFFFFFFFFFFFFFFFFFFFFFFF16
:101AE000FFFFFFFFFFFFFFFFFFFFFFFFFFFFFFFF06
:101AF000FF8F0F8FDFDFDFDFDFDFDFDFDFDFDFDF46
:101B0000DFDFDFDF50DFDF8F088FDFDFDFDFDFDFEB
:101B1000DFDFDFDFDFDFDFDFDFDFDFDFDFD88F0FFC
:101B20008FD8DFDFDFDFDFDFDFDFDFDFDFDFDFDF1C
:101B3000DFDFDFDFDF8F088FDFDF50DFDFDFDFDFBB
:101B4000DFDFDFDFDFDFDFDFDFDFDF8F0F8FFFFFD5
:101B5000FFFFFFFFFFFFFFFFFFFFFFFFFFFFFFFF95
:101B6000FFFFFFFFFFFFFFFFFFFFFFFFFFFFFFFF85
:101B7000FF8F408F4F8F4F8F4F8F4F8F4F0F4F0FD4
:101B80004F0F4F0F480F4F0F400F4F0F4F0F4F0F7B
:101B90004F0F4F0F4F0F4F0F4F0F4F0F4F0F4F0064
:101BA0004F0F4F0F4F0F4F0F4F0F4F0F4F0F4F0F45
:101BB0004F0F4F0F4F0F400F4F0F480F4F0F4F0F4B
:101BC0004F0F4F8F4F8F4F8F4F8F4F8F408FFFFF94
:101BD000FFFFFFFFFFFFFFFFFFFFFFFFFFFFFFFF15
:101BE000FFFFFFFFFFFFFFFFFFFFFFFFFFFFFFFF05
:101BF000FFFFFFFEFDFAF5EAD5EAD5EA00FFFFFF99
:101C0000FF0FF757B757B757B7D7B7D7F7F7F7F764
:101C1000F7F7F70FFF0FF757B757B757B7D7B7D73C
:101C2000F7F7F7F7F7F7F7F7F70FFF0FF757B7578C
:101C3000B757B7D7B7D7F7F7F7F7F7F7F70FFFFFAC
:101C4000FFFF00EAD5EAD5EAF5FAFDFEFFFFFFFF48
:101C5000FFFFFFFFFFFFFFFFFFFFFFFFFFFFFFFF94
:101C6000FFFFFFFFFFFFFFFFFFFFFFFFFFFFFFFF84
:101C7000FFFFFFFFFFFFFFFFFFFF7FBFD05F5F5F43
:101C80006FACAFADAEAFAFAF6F5F5F5FDFBF7FFF7A
:101C9000FFFFFF80FF80FFFDFEFF1FEFF7F777F7E5
:101CA00077F7F7EF1FFFFFFFFF80FF80FFFDFEFFCD
:101CB0003FDF6FAFAFAFAFAFAFAFAFAFAFA8AFAFBB
:101CC000AFAF68DF3FFFFFFFFFFFFFFFFFFFFFFF3B
:101CD000FFFFFFFFFFFFFFFFFFFFFFFFFFFFFFFF14
:101CE000FFFFFFFFFFFFFFFFFFFFFFFFFFFFFFFF04
:101CF000FFFFFFFFFFFFFFFF3FD0EF29EEF7D7F712
:101D0000DBFBEBFBEBFBEBFBDBF7D7F7EE29EFD0D5
:101D10003FFFFFD4FFD4FFFFFFFF00FFEEE5E3E34B
:101D2000E3E7EEFF00FFFFFFFFD4FFD4FFFF3FD04C
:101D30006F292E77D7B3F3F3F3F797F7F7F7F7B7E2
:101D4000D7772E296FD03FFFFFFFFFFFFFFFFFFF79
:101D5000FFFFFFFFFFFFFFFFFFFFFFFFFFFFFFFF93
:101D6000FFFFFFFFFFFFFFFFFFFFFFFFFFFFFFFF83
:101D7000FFFFFFFFFFFFFF9F606F6F07F6056F6FAD
:101D80006F6E6D6D6D6D6D6E6F6F6F05F6076F6FBA
:101D9000609FFFFFFFFF3FDFEFEF80FFBFFFBFFF51
:101DA000BFFFBFFF80EFEFDF3FFFFFFFFF9F606FD1
:101DB0006E04F4066F6F6A6A6A6A6A6A6A6A6A6FB0
:101DC0006F06F4046E6F609FFFFFFFFFFFFFFFFFD2
:101DD000FFFFFFFFFFFFFFFFFFFFFFFFFFFFFFFF13
:101DE000FDFDFDFDFDFDFDFDFDFDFDFDFDFDFDFD23
:101DF000FDFDFDFDFFFFFFFFFFFCFCFCFCFEFFFF08
:101E0000FFFFFFFFFFFFFFFFFFFFFFFEFCFCFCFCEF
:101E1000FFFFFFFFFFFCFCFCFCFCFCFCFCFCFCFCF3
:101E2000FCFCFCFCFCFCFCFCFCFCFFFFFFFFFFFCE3
:101E3000FCFCFCFEFFFFFFFFFFFFFFFFFFFFFFFFBC
:101E4000FFFEFCFCFCFCFFFFFFFFFFFDFDFDFDFDB9
:101E5000FDFDFDFDFDFDFDFDFDFDFDFDFDFFFFDCCF
:101E600000B4009300B4004A01B400008006101AC8
:101E70002C003200210032003700320000800408BC
:101E8000FFE0F1FB456D7074797E7468657E627564
:101E9000636B65740A62797E676F696E677E6F75C2
:101EA00074736964652E0A49747E646F65737E6E0F
:101EB0006F747E6E6565640A746F7E62657E66759A
:101EC0006C6C7E666F727E69740A746F7E62657E6A
:101ED000656D70746965642E004661696C696E6732
:101EE0007E746F7E63617463680A617E64726F7072
:101EF0007E77696C6C7E73746172740A617E666948
:101F000072657E616E647E636F73740A796F757E2D
:101F1000617E6C6966652E0043617463687E7468D7
:101F2000657E64726F70730A6265666F72657E7437
:101F30006865797E6869740A7468657E666C6F6F1F
:101F4000727E746F7E6761696E0A706F696E7473FA
:101F50002E0010110CFFFF0101010101010101011F
:101F60000101010101010101010101010101010161
:101F7000010101010101010101FFFF020202020250
:101F80000202020202020202020202020202020231
:101F9000020202FFFF03030303030303030303031C
:101FA0000303030303030303030303030303030301
:101FB00003001616161600000000010101010405B9
:101FC000060708091616161616160000000001016D
:101FD0000101040506070809161616161616000054
:101FE0000000010101010405060708090A0B0C0D98
:101FF0000E0F1011121314151616161616161616A5
:10200000161616161616161616161616161600009C
:1020100000000000000000000000000000000000C0
:1020200000010101010101010101010101010101A1
:102030000101010101020202020202020202020285
:102040000202020202020202020202020202020270
:102050000202020202020202020202020202020062
:10206000000000000000000000000000111112122A
:102070001313121211111212131312121111111142
:102080001111121213131212111112121313121230
:1020900011111111111110100F0F0E0E0D0D0C0C4E
:1020A0000B0B0A0A090909090A0A0B0B0C0C0D0E85
:1020B0000F101112131415161616161616161616DC
:1020C00015141312111213140049667E68657E669A
:1020D00061696C737E746F0A63617463687E74688F
:1020E000657E6F696C7E69740A77696C6C7E666167
:1020F0006C6C7E6F6E7E7468650A637573746F6D49
:102100006572737E62656C6F770A616E647E636F61
:1021100073747E617E6C6966652E005468726F7799
:102120007E7468657E6F696C7E746F0A796F7572F4
:102130007E636F6C6C65616775650A746F7E67613D
:10214000696E7E706F696E74732E00130C00FFFF52
:10215000010101010101010101010101010101016F
:1021600001010101010101010101FFFF020202025F
:10217000020202020202020202020202020202023F
:10218000020202020202020202020202020202022F
:1021900002020202FFFF0000000000000000000039
:1021A000000000000000000000000000000000002F
:1021B000000000000000020406080A0C0E101214B1
:1021C00016181A1C1E202224262626262624222003
:1021D0001E1C1A18161412100E0C0A08060402000F
:1021E000000000000000454545454545454545453D
:1021F000454500010245454545454545454545455B
:102200004545454545450001030405060708090AFB
:102210000B0D0E0F10111213141516161616161696
:1022200016161718191A1B1C1D1E1F2021212121EB
:1022300021210D0C0B0A0908070605040302010001
:1022400000000000000102030405060708090A0B4C
:102250000C0D0E0F10111213141414141414141462
:10226000141414141414141414141414141414142E
:10227000141414141414141414141414141455737E
:10228000657E69747E7768656E0A796F757E6172A6
:10229000657E656D707479696E670A796F75727E97
:1022A0006275636B65747E746F0A646563696465E7
:1022B0007E77686963687E7761790A746F7E676F7D
:1022C0002E0048616E67696E677E6F6E7E7468650A
:1022D0000A6761726167657E77616C6C7E69730AFB
:1022E000617E6D61707E746861747E73686F7773F0
:1022F0000A796F75727E636F6C6C65616775657363
:102300000A706F736974696F6E2E000C0C00FFFF0A
:1023100001010101010101010101010101010101AD
:1023200001010101010101010101FFFF020202029D
:10233000020202020202020202020202020202027D
:1023400002020202FFFF446F7E6E6F747E7370653F
:102350006E647E746F6F0A6C6F6E677E6F757473D8
:102360006964650A77616974696E677E666F727EFB
:10237000796F75720A636F6C6C65616775657E61F4
:10238000737E796F750A6D61797E63617573657EA1
:10239000610A666972657E696E736964652E004CB8
:1023A000696B65776973657E7768656E7E796F7531
:1023B0000A6172657E6F7574736964657E796F7585
:1023C0000A63616E7E7365657E64726970737E0AEE
:1023D000666F726D696E677E696E736964652E00E3
:1023E0001007001C3F3F1C0406000400002E2E7E38
:1023F0007469707E7468657E6F696C7E6F6E0A7436
:10240000687265657E637573746F6D6572730A6457
:102410006F776E7E62656C6F772E0012081F020464
:10242000021F001F001215150900121515090008DA
:1024300008387C5F0E7F7834005468657E67616D74
:10244000657E69737E6F7665720A7768656E7E79E0
:102450006F757E6D6973730A74687265657E6F69E6
:102460006C7E64726970730A696E736964657E6FED
:10247000727E2E2E008040FBF7E7E3C3A1B0B8B810
:102480007879790901010123B3B3B3B3B3B3B3B31B
:10249000B3B3B3B3B3B3B3B3B3B383718031B3B333
:1024A000B3B3B3B3B3B3B3B3B3B3B3B3B3B3B3B3FC
:1024B000B3B3B3B3B3B3B3B301F001B3B3B3B3B313
:1024C000B3B3B3B3B3B3B3B3B3B3B3B3B3B3B3B3DC
:1024D000B3B3B3B331807183B3B3B3B3B3B3B3B3F3
:1024E000B3B3B3B3B3B32301010101797978B8B8B9
:1024F000B0A1C3E3E7F7FB0F0F1F1F3F3F7F7FFF35
:10250000FFFFFFFFFFFEFEFFFFFEFDFDFBFBF7F7FA
:102510000FEFEFEFEFEFEFEFEFEFEFEFEEEFEFEFAC
:10252000EFEFEFEFEFEFEFEFEFEFEFEFEFEFEFEFBB
:10253000EFEFEFEFEFEFEFEFEFEEEFEFEFEFEFEFAC
:10254000EFEFEFEFEFEFEFEFEFEFEFEFEFEFEFEF9B
:10255000EFEFEFEFEFEEEFEFEFEFEFEFEF0FF7F75C
:10256000FBFBFDFDFEFFFFFEFEFFFFFFFFFFFFFF8A
:10257000FFFFFFFFFFFFFFB6B66C6C6858D8B0B026
:10258000A0616143C38787FFFFFFFFFFFFFFFFFFDE
:1025900000FFFFFFFFFF07078747A7D7E7F7F7F71A
:1025A000F7F7F7F7F7F7F7F7F7F707FFFFFFFFFF83
:1025B000FFFFFFFFFFFFFFFFFFFFFFFFFFFFFFFF2B
:1025C000FFFFFFFFFFFFFFFFFFFFF7F757F7F7F7EB
:1025D000F7F7F7F7F7F7F757F7F7FFFFFF00FFFFFA
:1025E000FFFFFFFFFFFFFFFFFFFFFFFFFFFFFFFFFB
:1025F000FFFFFFFFFFFFFF9A9A95B5B5B52A6A6AFC
:10260000555555D5AAAAFFFFFFFFFFFFFFFFFFFFAC
:1026100000FFFFFFFFFF00FDFEFFFFFFFFFFFFFFCB
:10262000FFFFFFFFFFFFFFFF7FFF00FFFFFFFFFF39
:10263000FFFFFFFFFFFFFFFFFFFFFFFFFFFFFFFFAA
:10264000FFFFFFFFFFFFFFFFFFFF7D7D557D7D7DCE
:102650007D7D7D7D7D7D7D557D7DFFFFFF00FFFFC5
:10266000FFFFFFFFFFFFFFFFFFFFFFFFFFFFFFFF7A
:102670007F7F7F7F3F3F3FFFFFFFFFFFFFFFFFFFAA
:10268000FFFF00000000FFFFFFFFFFFFFFFFFFFF56
:1026900000FFFFFFFFFFF0F7F7F7F7F7F7F7F7F7A0
:1026A000F7F7F7F7F7F7F5F4F4F7F0FFFFFFFFFFA1
:1026B000FFFFFFFFFFFFFFFFFFFFFFFFFFFFFFFF2A
:1026C000FFFFFFFFFFFFFFFFFFFFFFFFFFFFFFFF1A
:1026D000FFFFFFFFFFFFFFFFFFFFFFFFFF00FFFF09
:1026E000FF07F7F7F3FB03FF01010000FEFEFEFE0C
:1026F000FEFFFFFFFFFFFFFFFFFFFFFFFFFFFFFFEB
:10270000FFFF00000000FFFFFFFFFFFFFFFFFFFFD5
:1027100000FFFFFFFFFFFFFFFFFFFFFFFFFFFFFFC8
:10272000FFFFFFFFFFFFFFFFFFFFFFFFFFFFFFFFB9
:10273000FFFFFFFFFFFFFFFFFFFFFFFFFFFFFFFFA9
:10274000FFFFFFFFFFFFFFFFFFFFFFFFFFFFFFFF99
:10275000FFFFFFFFFFFFFFFFFFFFFFFFFF00FFFF88
:10276000FF000101030300FF00000000FFFFFFFF67
:10277000FFFFFFFFFFFFFFFFFFFFFFFFFFFFFFFF69
:10278000FFFF00000000FFFFFFFFFFFF7F7FBFBFD5
:10279000C0DFDFDFDFDFDFDFDFDFDFDFDFDFDFDF68
:1027A000DFDFDFDFDFDFDFDFDFDFDFDFDFDFDFDF39
:1027B000DFDFDFDFDFDFDFDFDFDFDFDFDFDFDFDF29
:1027C000DFDFDFDFDFDFDFDFDFDFDFDFDFDFDFDF19
:1027D000DFDFDFDFDFDFDFDFDFDFDFDFDFC0BFBF68
:1027E0007F000100000000FF00000000FFFFFFFF6E
:1027F000FFFFFFFFFFFFFFFFFFFFFFFFFFFF7FBFA9
:10280000BFDFC0E0F010575B5D5D5E5E5F5F5F5FE6
:102810005F5F5F5F5F5F5F5F5F5F5F1FFFFFFFFF88
:10282000FFFFFF1F5F5F5F5F5F5F5F5F5F5F5F5F18
:102830005F5F5F5F5F5F5F5F5F5F5F5F5F5F5F5FA8
:102840005F5F5F5F5F5F5F5F5F5F5F5F5F5F5F5F98
:102850005F5F5F5F5F5F5F5F5F5F5F5F5F5F5F5F88
:102860005F5F5E5E5C5C18F7F0E0E0C0DFBFBF7FDB
:10287000FFFFFFFFFFFFFF1014000CFEFEFEFEFF38
:10288000FFFFFFFFFFFEFEFEFE0CC3FFFFFFFFFF8B
:10289000FFFFFFFFFFFFFFFFFFC3207FFFFFFFFFE3
:1028A000FFFFFFFFFFFFFFFF7F201018F3050D0D57
:1028B000EDEEEEEEEE0E0E0D0D0D05F33C81828277
:1028C000FBFBFBFBFB0202028282813CDFA020407B
:1028D0007D7D7D7D7D4141414020A0DF501803FF7B
:1028E0000000000078787800000103FFFF0000007E
:1028F0000078787878F8F8FF07FB0F000080F88000
:1029000000000FFF03FF00000000F8F8F8000001CE
:1029100003FFFF000000007FFFC37F00000000FFF7
:102920008FBFA7A1A1E0F8F87800010107FF00FF21
:1029300000000000FC0CFC00000207FFFF0000008C
:10294000007C7C7C7C7F7FCFF01F000000C747C7E6
:102950000000001FF0FF000000007F7F7F000000EC
:1029600000FFF9F7EC08F800000000F8F8FCFFFFA2
:10297000FFFFFF03FF6161606060FCFEFFFFF0F797
:10298000F4F4F4FCFFF0F7F4F4F4FCF3F7F4F4F4EB
:10299000F4F4F4F4F4F4FCF3F7F4F4F4FCFFF0F7DB
:1029A000F4F4F4FCF3F7F4F4F4F4F4F4F4F4FCFECB
:1029B000FFFFFFFFFFF0F7F4F4F4FCFFFFFFFFFF62
:1029C000FFFFFFF0F7F4F4F4F4FCFFFFFFFF08084B
:1029D00000606E0202626E0080606E120A626E011A
:1029E00012180711CDECF4F6EF1FBFC7F38D2606C2
:1029F0008CF9E30F009F3F4783934780FFEFDF3F52
:102A00003F3FBF9FC7E08087CDE6F6F8FCFFFFFFA2
:102A1000FFFFBF3F1FDDFFFE0711CDECF4F6EF1FF8
:102A2000BFC7F3FD7E3E3C79E30F00912064F1FFC8
:102A30007F80FFEFDF3F3C39B89CC7E08087CDE661
:102A4000F6F8FCFFFFFFFFFFBF3F1FDDFFFE071192
:102A5000CD2C14962F1FBFC7F3FDFEFEFCF9E30F2C
:102A6000009F3F7EFCFC7E80FFEFDF230901A39FD8
:102A7000C7E08087CDE6F6F8FCFFFFFFFFFFBF3F12
:102A80001FDDFFFE8040FDFDFDFD3DDD3D0D0D0523
:102A9000C5C5C5050D0D3DDDFD05050505FD1DFD86
:102AA00005050505FDFDFDFDFDFDFDFDFDFDFD7DB6
:102AB0007DFDFDFDFD7D7DFDFDFDFD7D7DFDFDFDC6
:102AC000FDFD7DFDFDFDFDFDFDFDFDFDFDFDFDFDB6
:102AD000FDFDFD7D7D3D3D9D9DDDDDDDDD873BED2E
:102AE00055AD55AD55AD55ADF9F9FBF3E7CD1D3DF0
:102AF000FDFDFDFDFDFDFDFDFDFDFDFDFDFDFDFD06
:102B0000FDFDFDFDFDFDFFFFFFFF00FF00000000DC
:102B1000FFFFFF00000000FFFF00000000FF00FFBC
:102B200000000000FFFFFFFFFFFFFFFFFF0FF0FFB0
:102B3000FE00C0C0C0C1FE00C0C0C0C0C7F800C019
:102B4000C0C0C3FC01FFFFFFFFFFFFFFFFFF07F354
:102B5000F9FCFEFEFFFFFFFFFFFFFFFF7F3F3EB8D8
:102B600093260D4A4D4ACDDFDFDF9FBFB53F000002
:102B70003F7F7F7FFFFFFFFFFFFFFFFFFFFFFFFFA5
:102B8000FFFFFFFFFFFFFFFFFFFFFCF3ECD0D0A034
:102B9000A3A3A3A0D0F0FC83BFA0A0A0E0FF80BFB0
:102BA000A0A0A0A0A1A1A1E1FFFFDFBF9F9CC3A7A0
:102BB0009FC0C7C7C7A79FC0C7C7C787BFC7C0C772
:102BC000C7C7B7CFA09F9F9FBFBFFFFFFFFFFCF30B
:102BD0006F9FBFBF3F9F1F4737B3D1D8BC7FFF1F39
:102BE000CFF6FAFAF2E48C3FFFFFFFFFE18000002E
:102BF0000080E0F0F07B7BF70F0FF7FB6B07E7D768
:102C00008F3F7FFFFFFFFFFFFFFF0FFF0303030364
:102C1000E3E3E30303070FFF3F030303E3030303BC
:102C20003FFF0FFF030303030F7FFF03030303FFB4
:102C30000FFF03030303FF1FEF1F070703E3E3E394
:102C40000307071FFFFFFFFFFFFFFFFF0F333536AF
:102C500036B5BA9200D8007CFFFFC7839300FE838D
:102C600049C1E3FFFF7F1F80FFFFFFFFFFFFFEFC67
:102C7000FCFFFFF198C3F17F8080C7FFFFF881FF61
:102C8000F0C0FF60BDC1FFFFFFFF00FF00000000BC
:102C9000E3E3E3E0E030D87F0000001E1F1E0000E9
:102CA000007FC0FF00000000F0800300000000FF74
:102CB00000FF00000000FF00FF00000000FFFFFF1A
:102CC0000E0E0E0EFFFFFFFFFFFFFFFBC43FFFFFD7
:102CD000FFF7F3E38180001E3499DBE3F1FEFFFF91
:102CE000FFFCFCFC7E76FFFBFFFEFFFFFFFFFFFF0C
:102CF000FFFFFF1F07F1FCFFFFFFFFFFFFFFFFBF0D
:102D00001F4F77787FFF7F7F7F7F405F50505070ED
:102D10007F7F7F7F7F405F505050707F415F50507A
:102D200050704F5F505050707F4F5C50505070FF4C
:102D3000603FB0D0D8E8EFE8EFECE8E8E8EBEBEB89
:102D4000E8E8E8ECF7F7F7F7FBFDFD0EC6E0F0FF6B
:102D50008F07FBF9FCFC7E7E7F7F3F3F9F9F8F0F9D
:102D60009F9F4E44B0B39797BF7777F7F7FBFFFF6E
:102D7000FFFFFFFFFCF3070F1F3F3F7F3F8FE3F98C
:102D8000FCFEFFFFFFFE0101010101010101010144
:102D90000101010101010101010101010101010123
:102DA00001010101010101010101010101017F8115
:102DB00000FEFFFFFFFFFFFFFFFFFFFFFFFFFFFF23
:102DC000FFFFFFFFFF830F7FFFFFFF801F7F7F7FDE
:102DD0003F3E1C040400000000000C7E8E76F27959
:102DE0007D7E3E3F1F0F0703010000010FFFFFFF25
:102DF000FFFFFFFFFF078000000000000003030348
:102E00000707070F3FFF0000000000000000000060
:102E100000000000000000000000000000000000B2
:102E200000000000000000000000000000000000A2
:102E3000030C33479F3FFFFFF3E3C7CF9FBF3F3FE5
:102E40003F7F7F7FBFBFFEFCFCF9E7E7F7E2E0C012
:102E5000C0808000000000000000000000010204AB
:102E60000830408040C0E07078389CC6C0FFFFFF4B
:102E7000FFFFFF1F80F8FFE00000000000000000DF
:102E80000000C0E0E0E10208D4D205077F7F3E1CCD
:102E900008411FFE0105F1F1F111D1B1D111F1513C
:102EA000515151515151515151515151510000FF06
:102EB00000007F7F09090F06007F7F19396F4600E8
:102EC0007F7F4949414100266F49497B3200266F87
:102ED00049497B32FF0000FFFFFFFEFFFEFF027942
:102EE000CD95A5CD790111111101F9F9010100006C
:102EF000FF00007F7F09090F06007F7F40404040B0
:102F0000007C7E0B0B7E7C00070F78780F0700009B
:102F10000000000000FF00001F3F3F333333333316
:102F20003E36363E363E363E36363E36363E360047
:102F300000FF00003E7F41417F3E007F7F0E1C7FEF
:102F40007F00000000000000000000000000000002
:102F50000000000000003F405040404078464141A2
:102F600059594141414159594141414141414141F1
:102F700000007F000001017F7F0101007C7E0B0BC0
:102F80007E7C007F7F09090F06007F7F4949414110
:102F9000000000000000008801A0014B02D0008862
:102FA00001A0014B026F021003D0007201D0008813
:102FB00001D000EE01D0009302A0017201D0008880
:102FC00001A001EE016F021003D0001003D00088B1
:102FD00001D000EE01D0008801A0014B02D0008892
:102FE00001A0014B026F021003D0007201D00088D3
:102FF00001D000EE01D0009302A0017201D0008840
:1030000001A001EE016F021003D0001003D0008870
:1030100001D000EE01D0000B02D0009302D00010CE
:1030200003D0004B02A0011003D000EE01D0004BF2
:1030300002D0001003D0004B026F024B0253070076
:1030400080080B00020202000009040000010202D5
:1030500000000524001001052401010104240206DA
:103060000524060001070581031000400904010042
:10307000020A000000070502024000000705830263
:103080004000000403090412010002EF0201404164
:1030900023368000010102030141726475696E6F7D
:1030A000204C4C430041726475696E6F204C656F13
:1030B0006E6172646F00282711241FBECFEFDAE023
:1030C000DEBFCDBF13E0A0E0B1E0E0EFFDE602C05F
:1030D00005900D92AA3DB107D9F728E0AAEDB3E01B
:1030E00001C01D92A83AB207E1F718E1CCE5D8E19A
:1030F00004C02197FE010E94E936CB35D107C9F7FC
:103100000E947C270C94F6360C940000809177087E
:10311000089580911503E82FF0E0E055FD4F92A946
:10312000913039F4873128F4909314038F5F8093A2
:10313000150308959091A308982329F49091A2086B
:10314000982381E009F480E00895E7E2F4E0A0E04C
:10315000B8E000800EBC8111012C1197A0FDFDCFBD
:103160000192B9F70DB40895FC01809126048823DB
:1031700011F13FB7F89482E08093E9002091F200CA
:10318000822F90E01816190614F481E090E088234D
:1031900039F0289844E6409325044091F10040839B
:1031A000222339F02091F200211103C02BE6209355
:1031B000E8003FBF08958FEF9FEF08952FB7F89471
:1031C00083E08093E9009091E800892F807295FF59
:1031D00004C09091F20080E4891B2FBF0895809174
:1031E0001D0481110DC082E08093190484E0809356
:1031F0001A0410921C0410921B0481E080931D0499
:1032000089E194E00895CF93DF931F92CDB7DEB7A5
:103210006983DC01ED91FC910280F381E02D41E0B6
:1032200050E0BE016F5F7F4F09950F90DF91CF9106
:10323000089583E08093E9008091F200882319F0DB
:103240008AE38093E80008950E94DE1890E00895D4
:10325000CF93DF931F92CDB7DEB7FC0184859585B0
:1032600097FD08C02FEF3FEF358724870F90DF9140
:10327000CF910895CE0101960E94B418019719F4D8
:10328000898190E0F3CF8FEF9FEFF0CF0F931F93E3
:10329000CF93DF931F92CDB7DEB78C01FC018485FD
:1032A000958597FF0BC0CE0101960E94B418019737
:1032B00071F4898190E0F80195878487F80184850D
:1032C00095850F90DF91CF911F910F9108958FEF0A
:1032D0009FEFF1CFFC018485958597FD0BC09FB7CB
:1032E000F89482E08093E9008091F2009FBF90E023
:1032F000019608959FB7F89482E08093E900809149
:10330000F2009FBF90E0089540911304509114047F
:10331000209111043091120442175307B4F4909194
:10332000E8009570E1F39091E80092FD19C0809358
:10333000F100809113049091140401968F739927E2
:10334000892B19F48EEF8093E800809113049091FB
:1033500014040196909314048093130481E008955B
:1033600080E00895DF92EF92FF920F931F93CF9327
:10337000DF93D82E8A01EB017B01E40EF51ECE15FA
:10338000DF0559F0D7FE12C0FE0184910E94841916
:1033900021968111F4CF0FEF1FEFC801DF91CF917C
:1033A0001F910F91FF90EF90DF9008958881EECFED
:1033B0000F931F93CF93DF931F92CDB7DEB782E0B9
:1033C000898342E450E061E470E380E80E94B2192E
:1033D0000E94EF18DC0112960D911C910115110548
:1033E00089F0D801ED91FC910280F381E02DBE01BE
:1033F0006F5F7F4FC801099597FD04C0F8010085F4
:103400001185ECCF89810F90DF91CF911F910F91A2
:103410000895615030F02091F100FC012083019665
:10342000F8CF289884E6809325040895AF92BF9240
:10343000CF92DF92EF92FF920F931F93CF93DF9380
:103440006C017B018B01040F151FEB015E01AE18AF
:10345000BF08C017D10759F06991D601ED91FC91D1
:103460000190F081E02DC6010995892B79F7C501FE
:10347000DF91CF911F910F91FF90EF90DF90CF9050
:10348000BF90AF9008953FB7F8948091E903909171
:10349000EA03A091EB03B091EC0326B5A89B05C00D
:1034A0002F3F19F00196A11DB11D3FBFBA2FA92FC3
:1034B000982F8827BC01CD01620F711D811D911DC0
:1034C00042E0660F771F881F991F4A95D1F708952C
:1034D0008F929F92AF92BF92CF92DF92EF92FF9224
:1034E0006B017C010E94431A4B015C01C114D104A1
:1034F000E104F104B9F00E94431A681979098A09B4
:103500009B09683E73408105910580F321E0C21A52
:10351000D108E108F10888EE880E83E0981EA11C0E
:10352000B11CE4CFFF90EF90DF90CF90BF90AF90B1
:103530009F908F9008958F929F92AF92BF92CF925B
:10354000DF92EF92FF920F931F93CF93DF936C0163
:103550007B018A018091AF02882309F45CC08091CD
:103560002604882309F457C08091180480FF05C001
:103570008091E00082608093E000E801B12C8AEF46
:10358000A82E93E0892E2AE3922E209711F4BB20D7
:10359000D9F10E94DE1881110AC0AA94AA20D9F19B
:1035A00061E070E080E090E00E94681AEECF8C1736
:1035B0001D0611F00CF08C2F9FB7F8948092E90053
:1035C0002091E80025FD02C09FBFDFCF282F30E00B
:1035D000C21BD30BF701815020F041914093F100C1
:1035E000FACFE20EF31EBB2021F09092E800B12C3E
:1035F000EBCF8091E80085FDE7CF9092E800BB24F7
:10360000B394209709F3F3CF5D9884E68093170471
:10361000101611063CF081E090E0F601938382835E
:1036200010E000E0C801DF91CF911F910F91FF9052
:10363000EF90DF90CF90BF90AF909F908F900895C4
:103640002091E103E091DF03F091E003CF010296C6
:103650009093E0038093DF03222319F085919491E6
:103660000895808191810895E1E7F0E080818D7F68
:10367000808310929100469847981092DE03089537
:10368000CF92DF92EF92FF92CF93DF930E94201BA5
:10369000811520E8920741F4DF91CF91FF90EF90E0
:1036A000DF90CF900C94341B21E02093DE03813017
:1036B00020E8920751F48091DC039091DD03909310
:1036C000E0038093DF030E94201B97FD05C020913B
:1036D000DB03222309F45BC02091DA03211157C0D8
:1036E00021E02093E203EC01DF77209709F052C03C
:1036F00081E08093E30346983FE9C32E3FE0D32E59
:10370000E12CF12CCAEFD0E0E0918608F091870817
:103710000995811103C081E08093E3038091E20366
:10372000882329F08091E303882309F446C0479851
:103730000E94201B009709F444C09C01DE010E94F6
:10374000B236DC01CB0129E0B595A7959795879511
:103750002A95D1F7109290002AE020939100D09200
:103760009900C09298008093E4039093E503A0939E
:10377000E603B093E703809171008260809371004B
:10378000DF91CF91FF90EF90DF90CF90089510924E
:10379000E203A9CF9E0150E040E060E472E48FE0D4
:1037A00090E00E945E3669017A0181E0C81AD10872
:1037B000E108F1081092E303A7CF4699B8CF479AE2
:1037C000B7CF8FEF9FEFDC01C5CF9C01E1E7F0E0C1
:1037D00090819D7F908381E08093E1033093E003AB
:1037E0002093DF033093DD032093DC030C94401B14
:1037F0009C01E1E7F0E090819D7F90831092E103CE
:10380000E8E7F8E0F093E003E093DF03F093DD03F3
:10381000E093DC03318320837383628380E090E84C
:10382000958384830C94401B6F927F928F929F921A
:10383000AF92BF92CF92DF92EF92FF920F931F93BE
:10384000CF93DF934C01CB013A017C2DFA016491B7
:1038500031965491F2E06F0E711CC62FD0E0211109
:1038600002C0EE2009F1E1E0F0E0352F377011F4ED
:10387000F0E0E0E0A52FA695A695A695AE0FBF2F88
:10388000B11DAC9FF001AD9FF00DBC9FF00D112458
:10389000733009F08BC0EE0FFF1F2E9FD0012F9FBA
:1038A000B00D11246A0E7B1ED401AC0FBD1F1A1679
:1038B0001B060CF06CC020E8821691040CF067C067
:1038C0009C01250F311D121613060CF060C08034C8
:1038D00091050CF05CC06114710409F458C0382FD4
:1038E0003770FC0197FD379623E0F595E7952A950B
:1038F000E1F72E2F97FF04C0332311F02FEF2E0F87
:10390000EE27FF27E819F90997FC02C0F0E0E0E094
:1039100090E89819A038B1050CF4962F9E1BA22FA1
:10392000022E000CBB0B4A2F40952F3F0CF040E0BD
:10393000DD24D394852F877009F4D12C56955695A4
:103940005695D50EAD0DB11D19971CF058E0D52E2A
:10395000D21AD41A240F50E82503D0011124A80D3F
:10396000B91DAE0FBF1F649FE00DF11D11246E0E37
:103970007F1EE32E032E000CFF08733009F423C1D1
:1039800008F5713009F4D6C0723009F484C0DF91B3
:10399000CF911F910F91FF90EF90DF90CF90BF904C
:1039A000AF909F908F907F906F90089501151105B3
:1039B00009F473CFEE9ED001EF9EB00D11240A0FD3
:1039C0001B1F6BCF7A3FB1F10D2D020F7B3FF9F634
:1039D0002017E9F2BD01695D7B4FD12CC12CC916BE
:1039E00008F0A2C0F301EC0DFD1DE491F0E0AF0181
:1039F0000E2C02C0440F551F0A94E2F727FD06C0A3
:103A0000FB018081142F109581238083332361F083
:103A1000273054F45B01F0E8AF0EB11C452F409500
:103A2000F501808184238083FFEFCF1ADF0A6F5F67
:103A30007F4FD5CF0D2D020F201709F4A8CFBD0160
:103A4000695D7B4FD12CC12CC91608F067C0F3010A
:103A5000EC0DFD1DE491F0E0AF010E2C02C0440F0F
:103A6000551F0A94E2F727FD04C0FB018081842BD7
:103A70008083332351F0273044F45B01F0E8AF0E2C
:103A8000B11CF5018081852B8083FFEFCF1ADF0AFF
:103A90006F5F7F4FD9CF6FEF70E0032E02C0660FCC
:103AA000771F0A94E2F760957095972E8D2C820E01
:103AB000281509F46CCF8D01095D1B4FD12CC12C49
:103AC000C91630F5F301EC0DFD1DE491F0E0AF01F6
:103AD0000E2C02C0440F551F0A94E2F727FD05C0C3
:103AE000F80180818623842B8083332359F027308B
:103AF0004CF45801F0E8AF0EB11CF501808189212A
:103B0000852B8083FFEFCF1ADF0A0F5F1F4FD8CFBF
:103B10002F5F6C0E7D1EA058BF4FCACF2F5F6C0E5B
:103B20007D1EA058BF4F88CF2F5F6C0E7D1EA05802
:103B3000BF4F4ECF0E0F1F1F8D2D820F281709F478
:103B400026CFBD01695D7B4FD12CC12CC91698F5DC
:103B5000F801EC0DFD1DA490B12C0E2C02C0AA0C96
:103B6000BB1C0A94E2F7A094B094F301EC0DFD1D88
:103B70008490912C0E2C02C0880C991C0A94E2F7B8
:103B800027FD08C0FB014081E42FEA214E2F482980
:103B9000FB014083332349F027303CF4FB01E0581C
:103BA000FF4FA080BA20B928B082FFEFCF1ADF0AFA
:103BB0006F5F7F4FCBCF2F5F6C0E7D1E0C0F1D1FD5
:103BC000A058BF4FBBCFE92EF12CE60DF71DA95D24
:103BD000BB4F60E870E06E197F09CE19DF09AE01B6
:103BE000440F551FC1E0D0E07E01032E01C0EE0C52
:103BF0000A94EAF7192F0D2D892E932ECF93DF9378
:103C0000ED01EF96EF962296A590C590992059F078
:103C1000AE9C5001CE9C600127302CF4F880D094EB
:103C2000FD20FB28F99222233AF0FC90C094FC205E
:103C3000FA28FD920C941D1E11961A9529F70A95E3
:103C400051F0182D23951124E40FF11DA60FB11D7D
:103C5000C60FD11DD9CFDF91CF91112498CECF922D
:103C6000EF920F931F933BEFC32EE12C10E000E087
:103C70000E94141C1F910F91EF90CF900895CF9246
:103C8000EF920F931F9332E0C32EE12C10E000E07F
:103C90000E94141C1F910F91EF90CF900895CF9226
:103CA000EF920F931F93F901202FCC24C3948F011F
:103CB0000E94141C1F910F91EF90CF900895BC01AA
:103CC00090E080E00C94681A8FB18095807F669BAD
:103CD00088601C9B84600895109277083E983F98F6
:103CE00008953E9A3F9A81E080937708089520E1F5
:103CF00091E061FD94E060FD990F62FD9295687F0F
:103D0000269FD0011124A80FA95DBB4F8C9140FFC5
:103D100003C0892B8C93089590958923FBCF80381D
:103D2000910528F46034710510F40C94771E089501
:103D30000895CF92EF920F931F93CF93DF93EC01EF
:103D40009E816A3071F48D818C836985960F9E8384
:103D500081E090E0DF91CF911F910F91EF90CF9094
:103D60000895262F6A3360F4603368F5613269F193
:103D70006E3229F198859C5F8C81890F8C83E8CF06
:103D80006134C0F36B35E8F08FE9860F27548A3130
:103D900088F761E0690F062E000C770B8C81082EE6
:103DA000000C990B3F81313091F43AEFC32EE12C96
:103DB00010E000E04CE451E10E94141CDBCF2FE343
:103DC000E8CF2154E6CF2C5FE4CF2EE3E2CF4CE4E2
:103DD00051E10E942F1ECECFCF92EF920F931F93EF
:103DE000CF93DF93EC016A3079F48D818C838E81DF
:103DF0009985890F8E8381E090E0DF91CF911F91AB
:103E00000F91EF90CF9008958C816E3719F48E5FEB
:103E10008C83F1CF262F6A3358F4603358F5613222
:103E200059F16E3219F198859D5F8C81890FF0CF21
:103E30006134C8F36B35E0F09FE9960F27549A314F
:103E400090F76E816F5F062E000C770B082E000C2A
:103E5000990B3F81313091F43AEFC32EE12C10E001
:103E600000E04AE850E10E94141CDDCF2FE3E9CFC7
:103E70002154E7CF2C5FE5CF2EE3E3CF4AE850E1B2
:103E80000E942F1ED0CF0F931F93CF93DF938C01EF
:103E9000D0E0C0E0F801EC0FFD1F6491662341F013
:103EA00083E998E00E94EC1E892B11F02196F2CF55
:103EB000CE01DF91CF911F910F910895089590E069
:103EC00080E00895CF93DF93EC018AAD863150F402
:103ED0008F5F8AAF8E3030F464E170E08CED90E05B
:103EE0000E94F81B81E09AAD9E3009F080E0DF91DE
:103EF000CF910895EF920F93CF93DF93DB01322F91
:103F0000DA960C91DA97063109F43BC081116AC048
:103F1000063108F036C0202F30E0F901E856F04EA7
:103F2000D9969C91D997C42F440FDD0B0C94E93698
:103F3000AE1FAE1FC61FC61FD21FD21FD21FD21F59
:103F4000D21FD21FD21FD21FD21FD21FDE1FDE1FD1
:103F5000DE1FDE1FEE1FEE1FEE1FEE1F260F371FA8
:103F6000F901618570E0A90FB11D8C91E12C00E091
:103F70002EE530E143E750E18C0F9D2F911D0E940B
:103F80004F1EDF91CF910F91EF900895260F371FAD
:103F9000F901618570E0A90FB11D8C91EE24E394C5
:103FA00001E0E6CF260F371FF901618570E0A90F08
:103FB000B11D8C9192E0E92E02E0DACF0E50A90FEC
:103FC000B11D8C918150990BE02E2CEC3EE044E920
:103FD0005FE068E170E08C0F9D1FD1CF85E1801B11
:103FE000082FEDCF0231F8F40E30A8F1D9968C915C
:103FF000D997823031F622EF200F6CE170E0631B1D
:10400000710915969C91042E000C550BFA01E90FCD
:10401000F11DCF014AEB5EE00197DF91CF910F9147
:10402000EF900C942F1E063108F0ABCFD9969C91DF
:10403000D997923009F0A5CF25E1201B6CE170E003
:10404000631B710915968C91042E000C550B840F7F
:10405000952F911DDFCFD9969C91D997923020F062
:104060009230D1F06FEF06C00C30E0F7FB01E00FAB
:10407000F11D618D631B770BA90FB11D13962C9158
:10408000842F440F990B40E0820F911DDF91CF9157
:104090000F91EF900C948F1EFB01E00FF11D61A5B5
:1040A000E9CFCF92DF92EF920F931F93CF93DF93DD
:1040B000909165029D3040F012E001E0973130F0C0
:1040C000905313E09A3008F012E000E02CE430E066
:1040D0006901C61AD108C82F880FDD0BE02E28ED24
:1040E0003CE048EC5DE0B601CE0102960E944F1E16
:1040F000E12E012F28ED3CE048EC5DE0B601CE0159
:1041000084599F4F0E944F1EDF91CF911F910F91B5
:10411000EF90DF90CF900895EF92FF920F931F934F
:10412000CF93DF93E82E880FFF08E0911503F0E0AE
:10413000E055FD4F018D002E000C110B04501109AC
:104140000E0D1F1D40E065E170E0C8010E948F1E4A
:1041500040E066E170E0C8010E948F1E40E067E128
:1041600070E0C8010E948F1EE0919503F0E0E558D1
:10417000FC4FC0810C2E000CDD0B2497CE0DDF1DF3
:1041800040E06BE170E0CE010E948F1E40E06CE1E8
:1041900070E0CE010E948F1E40E06DE170E0CE0124
:1041A000DF91CF911F910F91FF90EF900C948F1E94
:1041B000EF920F9341E050E090919403913011F011
:1041C00050E040E0E091950399E1949F9001959F24
:1041D000300D1124295E3C4FE20FF32FF11D02A98F
:1041E00029E230E0A901461B5109BA01E081082EFD
:1041F000000C990BE02E2EE338E04AE85AE08E0FCF
:10420000911DE7FD9A950E944F1E0F91EF90089522
:10421000962F20916502223158F42D3008F05AC0B3
:10422000223089F1C8F52223A9F02130F9F0089550
:10423000203360F4253208F07CC0233209F463C0D7
:1042400008F06EC0223209F451C00895253308F4F5
:104250008CC008956FE170E0691B7109082E000C95
:10426000990B20E040E358E00D960BC063E270E04C
:10427000691B7109082E000C990B21E040E358E0FE
:104280000C960C942F1E67E270E0691B7109082ED2
:10429000000C990B22E0E6CF30E0A9014350510910
:1042A000BA01660F771F660F771F695D7F4F691B25
:1042B0007109082E000C990B0C9657FDA901FA0103
:1042C000F595E795F595E79521E040E358E08E1BDD
:1042D0009F0BD7CF2D5066E470E0691B7109082E43
:1042E000000C990B4EE357E00197CBCF6FE170E0E4
:1042F000691B7109082E000C990B20E040E357E080
:1043000080599F4FBECF63E270E0691B7109082E90
:10431000000C990B21E040E357E08F589F4FB1CF3D
:1043200067E270E0691B7109082E000C990B22E00E
:10433000E5CF2552330BB901660F771F660F771F44
:10434000695D7F4F691B7109082E000C990BFC01F8
:10435000EF58FF4FC901959587959595879521E071
:1043600040E358E08E0F9F1F8CCF205366E470E02F
:10437000691B7109082E000C990B4EE357E0875911
:104380009F4F7FCFEF920F9390911503913041F0A3
:10439000D0F0973129F19831B1F10F91EF90089554
:1043A0002EE030E0A901461B5109BA01082E000C8D
:1043B000990BE12C00E02EE834E04EED55E00F962D
:1043C0000E944F1EEACF2EE030E0A901461B5109A2
:1043D000BA01082E000C990BEE24E39401E0EBCF18
:1043E0002EE030E0A901461B5109BA01082E000C4D
:1043F000990B32E0E32E02E02EE834E04EED55E07A
:10440000885A9F4FDDCF2EE030E0A901461B5109AD
:10441000BA01082E000C990B23E0E22E03E0ECCF4A
:10442000EF920F93CF93DF93E0911503F0E0E05507
:10443000FD4FDF01A55BBF4F0C91C82F880FDD0B2F
:104440008081E02E2CE031E04CEC52E06DE170E038
:10445000FE01E80FF11D87FDFA95CF010E944F1E66
:10446000E091150320911603E230C9F0E63129F1FD
:10447000222371F12150F0E0E055FD4F8081082E9C
:10448000000C990B019642EB50E061E270E08C0F5A
:104490009D1FDF91CF910F91EF900C942F1E22233F
:1044A000B9F0215044E051E066E270E0CE01DF91C6
:1044B000CF910F91EF900C943F1E222349F0215091
:1044C0004CEF50E065E270E0CE0182589F4FEFCF95
:1044D000DF91CF910F91EF900895EF92FF921F938C
:1044E000CF93DF93C62FD0E0D195C195D10910E0CD
:1044F000E82E880FFF08212F4DED57E1BE01C701BF
:104500000E943F1E1F5F28961D30A9F7DF91CF91B3
:104510001F91FF90EF900895CF93C62F20E04CEAB3
:1045200050E06AE370E090E00E943F1ECC2351F01F
:1045300020E04EE75EE16AE370E08C2F90E0CF91DF
:104540000C943F1ECF910895EF92FF920F931F930B
:10455000CF93DF93C82F10E000E0E82EF12C40E06D
:10456000B801C7010E948F1E0E5F1F4F0234110554
:10457000B1F7CF5F01E010E0D0E040E0B801CE013C
:104580000E948F1E0E5F1F4F01341105B1F7DF919E
:10459000CF911F910F91FF90EF9008958F929F926E
:1045A000AF92BF92CF92DF92EF92FF928135910549
:1045B00038F4899768F081E18093970382E20CC018
:1045C0008937910548F18BE08093970386E104C019
:1045D00084E18093970388E2809398038091940309
:1045E000813009F455C038F1843069F48091960324
:1045F000815080939603811106C080919503882392
:1046000081F08831A1F0FF90EF90DF90CF90BF90C4
:10461000AF909F908F9008958EE0809397038CE1E8
:10462000DBCF81E08093940380939503ECCF1092CD
:10463000940387E1F9CF809195038150809395038E
:104640008111E1CF84E080939403C0909803D12C32
:10465000F12CE12C80909703912CB12CA12C8C147F
:104660009D04AE04BF048CF4C818D908EA08FB08FE
:1046700041F00E94B835A70196010E945E366B0199
:104680007C018C0C9D1CAE1CBF1C80929603BBCF82
:10469000809195038F5F80939503883109F0B3CFA4
:1046A000D1CF81E00E94A51840E054E06FEF70E0A8
:1046B00087E294E00C94EF36EF92FF921F93CF9332
:1046C000DF9300D000D000D0CDB7DEB76FE48FE12C
:1046D00092E00E943E3660E580E292E00E943E3623
:1046E00081E2E82E82E0F82E11E41A8219821E82FD
:1046F0001D821B831C831D8346E050E0B701CE0161
:1047000001960E942E361F5F86E0E80EF11C83E3BF
:10471000E81682E0F80649F726960FB6F894DEBF51
:104720000FBECDBFDF91CF911F91FF90EF90089505
:10473000CF93C091770882E090E00E942036C8179E
:1047400031F06C2F82E090E0CF910C945036CF91F5
:1047500008951F920F920FB60F9211248F939F937B
:104760008091E1009091E100937F9093E10083FFBD
:104770000FC01092E90091E09093EB001092EC00D2
:1047800092E39093ED001092260498E09093F0004D
:1047900082FF22C093E09093E9009091F200992368
:1047A00019F09AE39093E80090911704992341F04F
:1047B00090911704915090931704911101C05D9A44
:1047C00090912504992341F0909125049150909364
:1047D0002504911101C0289A84FF18C08091E2003D
:1047E0008E7E81608093E2008091E1008F7E8093D5
:1047F000E100809118048E7E8061809318049F915F
:104800008F910F900FBE0F901F90189580FFF7CFDC
:104810008091E2008E7E80618093E2008091E100D1
:104820008E7E8093E100809118048E7E8160E5CFBA
:104830001F920F920FB60F921124CF92DF92EF9238
:10484000FF920F931F932F933F934F935F936F9319
:104850007F938F939F93AF93BF93EF93FF93CF93E8
:10486000DF93CDB7DEB76C97DEBFCDBF1092E90006
:104870008091E80083FF25C068E0CE0145960E9444
:10488000091A82EF8093E8008D8987FF39C09091E3
:10489000E80090FFFCCF982F907609F034C19E89F4
:1048A0004F89588D2F89F88C911131C0803861F56E
:1048B000809116048093F1001092F1008EEF8093A6
:1048C000E8006C960FB6F894DEBF0FBECDBFDF9147
:1048D000CF91FF91EF91BF91AF919F918F917F9178
:1048E0006F915F914F913F912F911F910F91FF9089
:1048F000EF90DF90CF900F900FBE0F901F90189504
:104900009EEF9093E800C7CF1092F100D5CF913081
:1049100059F48111D3CF4130510581F680911604AD
:104920008D7F80931604CACF933049F48111C6CF8E
:104930004130510519F6809116048260F2CF95300E
:1049400041F48091E80080FFFCCF20682093E300D1
:10495000B5CF963009F0A9C00B8D1C8D22E01092C6
:10496000E9001092140410921304F2122EC0109257
:104970001204109211040E94D8191F8299E09983A1
:10498000FA8291E09E8390EA98879AEF9987209126
:10499000130430911404275F3F4F3C832B838D8396
:1049A0001092E90010921404109213041093120450
:1049B0000093110449E050E0BE016F5F7F4F80E03B
:1049C0000E94B2190E94D81979CF10931204009353
:1049D00011040E94EF18DC0112960D911C91011533
:1049E000110509F451C1D801ED91FC910480F581C4
:1049F000E02DBE016B5E7F4FC8010995009709F05D
:104A00003EC1F80100851185EACFF3E0FF120EC028
:104A10008F89882309F440C0823061F440E860E166
:104A200085EA90E30E94F526811148CF81E28093C8
:104A3000EB0047CF813029F440E86BE089E990E34F
:104A4000F1CF833099F70E94EF18DC011296ED90B8
:104A5000FC908E010F5F1F4F6801E114F10479F0A3
:104A6000D701ED91FC910680F781E02DB801C701D7
:104A70000995080F111DF701E084F184EECFD801EC
:104A80001C92F60101900020E9F73197BF016C19E3
:104A90007D0940E0C601C6CF63E870E3FB014491A5
:104AA00050E080E80E94B21909CF973009F4BECFD8
:104AB000983021F481E08093F10000CF993009F023
:104AC000FDCE837009F0B2CFEEE9F3E081E031E092
:104AD00096E32191222371F08093E9003093EB005B
:104AE000DF0111972C912093EC009093ED008F5FE4
:104AF000873079F78EE78093EA001092EA008F8979
:104B000080932604DBCE8B8D9C8D1092E900109251
:104B10001404109213049093120480931104898D4D
:104B2000811192C08E899D89913A49F4813209F0B0
:104B30007DCF47E050E068EA72E080E0B3CF913289
:104B400009F074CF833269F48F89988DB0E0A0E0CA
:104B50008093A4029093A502A093A602B093A7020B
:104B6000ADCE803269F48091E80082FFFCCF67E02F
:104B700088EA92E00E94091A8BEF8093E8009ECEAB
:104B8000823209F09BCE8F898093AF02EEEFFFE770
:104B9000859194918B3F9C4D51F1E0E0F8E080913C
:104BA000A8029091A902A091AA02B091AB02803B09
:104BB0009440A105B105F1F48091AF0280FD1AC0C7
:104BC000EE3F8AE0F80789F587E797E791838083CE
:104BD000809160008093150488E19BE00FB6F89403
:104BE000A895809360000FBE9093600067CEEEEFB3
:104BF000FAE0D5CF808191818737974709F05ECE63
:104C0000A895809160008861809360008091150470
:104C100080936000EE3F2AE0F20789F08091FE0A5F
:104C20009091FF0A9183808349CE8081918187375B
:104C3000980751F29093FF0A8093FE0AC5CF109215
:104C4000FF0A1092FE0A3ACE0E94EF18DC0112967B
:104C50000D911C910115110509F4E8CED801ED91D3
:104C6000FC910190F081E02DBE016B5E7F4FC80189
:104C70000995811123CEF80100851185EBCF181617
:104C800019060CF41BCED2CEF1E0FF12BECE67E8BF
:104C900070E304CF1F920F920FB60F9211242F933F
:104CA0003F938F939F93AF93BF938091ED03909128
:104CB000EE03A091EF03B091F0033091E80323E0FD
:104CC000230F2D3758F50196A11DB11D2093E80340
:104CD0008093ED039093EE03A093EF03B093F00362
:104CE0008091E9039091EA03A091EB03B091EC036A
:104CF0000196A11DB11D8093E9039093EA03A0934F
:104D0000EB03B093EC03BF91AF919F918F913F91D3
:104D10002F910F900FBE0F901F90189526E8230F2C
:104D20000296A11DB11DD2CF1F920F920FB60F9206
:104D300011242F933F934F935F936F937F938F93A0
:104D40009F93AF93BF93EF93FF938091E403909170
:104D5000E503A091E603B091E703892B8A2B8B2B07
:104D600009F440C08091E30381110BC088B190E445
:104D7000892788B98091E203882319F088B1805887
:104D800088B98091E4039091E503A091E603B09186
:104D9000E703181619061A061B069CF48091E40313
:104DA0009091E503A091E603B091E7030197A10973
:104DB000B1098093E4039093E503A093E603B093D5
:104DC000E703FF91EF91BF91AF919F918F917F91F9
:104DD0006F915F914F913F912F910F900FBE0F9068
:104DE0001F9018950E94401BECCFEF92FF920F93FB
:104DF0001F93CF93DF93F82E192FE62E042F81E017
:104E0000860F880F0E94841983E00E948419CF2D99
:104E1000D12FEC0EFD2EF11CCE15DF05B9F007FFEA
:104E200013C0FE0184910E948419182F80E00E9413
:104E30008419812321968111EFCFDF91CF911F91AA
:104E40000F91FF90EF9008958881EDCF81E0F5CF2D
:104E5000E7E2F8E01382128288EE93E0A0E0B0E08F
:104E600084839583A683B78388EA93E091838083C4
:104E70008FEF9FEF95878487EDE9F8E01582168222
:104E800080E1878314821382118682ED93E09183FF
:104E9000808386E898E1909387088093860880E075
:104EA00090E8909385088093840846983E9A4798A6
:104EB0003F9AE3E9F8E01382128286EC93E0918353
:104EC000808398E0918781E0808715821682148222
:104ED0008783E9E8F8E0138212822AEB33E031831A
:104EE0002083918780871582168214828783809120
:104EF0007708809388080895CF93DF93CDB7DEB706
:104F0000C154D1090FB6F894DEBF0FBECDBF78945F
:104F100084B5826084BD84B5816084BD85B58260BE
:104F200085BD85B5816085BD80916E00816080936F
:104F30006E001092810080918100826080938100D8
:104F400080918100816080938100809180008160E8
:104F50008093800080919100826080939100809185
:104F60009100816080939100809190008160809396
:104F700090008091C10084608093C1008091C10045
:104F800082608093C1008091C10081608093C100E4
:104F90008091C30081608093C3008091C0008260D3
:104FA0008093C0008091C20081608093C200809194
:104FB0007A00846080937A0080917A008260809386
:104FC0007A0080917A00816080937A0080917A00E3
:104FD000806880937A001092260410921604109232
:104FE00018048091D70081608093D70080EA809375
:104FF000D80089B5806189BD89B5826089BD09B451
:1050000000FEFDCF61E070E080E090E00E94681A51
:105010008091D8008F7C80618093D8008091E000DF
:10502000807F8093E0008091E1008E7E8093E1009C
:105030008DE08093E200559A209A81EC80937C0069
:1050400085B1806F85B984B1877E84B984B1876E5C
:1050500084B95E9A5F988AB1806D8AB9769A6E98A3
:1050600081B3806F81BB899880B38D7080BB80E5F0
:105070008CBD81E08DBD85E090E00E945F1E5F9A4F
:1050800085E090E00E945F1E5E985C98EEE4F2E19D
:105090008BE592E124912EBD00000DB407FEFDCFFB
:1050A00031968E179F07B1F75C9A81E88093640070
:1050B000809165008160809365000E94641E87FF77
:1050C00015C05C9885EA8EBD00000DB407FEFDCFCB
:1050D0005C9A2E982F982D9880916400806280931E
:1050E000640081E083BF889513BEFCCF0E94641EDC
:1050F00082FF46C02D980E94641E84788438D9F4BB
:105100002D9A88EC90E00E945F1E2F9882E090E03C
:105110000E9420368F3F29F06FEF82E090E00E94DE
:10512000503684EF91E00E945F1E2F9A0E94641E09
:1051300084788438D9F30E94641E84718431D9F450
:105140002D9A88EC90E00E945F1E2E9882E090E0FD
:105150000E942036882329F060E082E090E00E94DF
:10516000503684EF91E00E945F1E2E9A0E94641ECA
:1051700084718431D9F388EC90E00E945F1EB6CF31
:105180002D9A809164008E7F8093640080917A00D4
:10519000806480937A0080917A0086FDFCCF009134
:1051A0007800109179000E94431AAB01BC01C8013C
:1051B000B0E0A0E0DC01992788278C019D01040F55
:1051C000151F261F371FC901B801209164002160F7
:1051D00020936400611571058105910511F00E940D
:1051E000073684E18093A40883E884BD8FEF87BDF0
:1051F00081EF809380001092880010928A0082E0F4
:1052000090E00E9420368823B1F10E94711E8FE148
:1052100092E00E942036182F80E292E00E94203611
:105220001F3411F4803511F00E945C231AE0412EE6
:10523000512CBCE02B2E312C8FB7F8944091ED030C
:105240005091EE036091EF037091F0038FBF809156
:10525000A508142F181B812FF090A608FF2071F0CD
:105260001093A7081092A60880E090E0892B21F304
:105270000E940000DECF0E946C1EC9CF9091A4084E
:10528000191740F48F5F891778F781E083BF8895FD
:1052900013BEEACF81E08093A6084093A5088091D1
:1052A000A0089091A10801969093A1088093A0086E
:1052B0008091A2088093A3080E94641E8093A20894
:1052C000E0911004EF3080F6F0E0E759F64D0C94D1
:1052D000E936782982290E2A1C2AA02AB02AB02A67
:1052E000B02AB02AB02AB02AC42EFE2EA6321F330E
:1052F0001092A3021092A20291E09093100494E104
:105300009093A4089091A3089095892329F1809106
:10531000A2029091A3021816190634F480E290E0DC
:105320009093A3028093A2028091A2029091A30283
:10533000892B91F46DE270E08EE690E00E94F81BFC
:105340006DE270E08CE290E00E94F81B81E090E05A
:105350009093A3028093A2028091A2029091A30253
:105360001816190654F401969093A3028093A20292
:10537000819719F482E08093100420E041E95EE215
:1053800061E170E080E290E00E943F1E8091A00801
:105390009091A10860E670E00E94C136883488F4DC
:1053A0008033C0F58831E0F420E04AE85EE269E14C
:1053B00070E08BE590E00E943F1E80E00E94A518FF
:1053C00053CF803688F720E046E85EE26CE170E07B
:1053D0008DE290E00E943F1E41E060E270E015C067
:1053E00020E046E85EE26CE170E08DE290E00E9431
:1053F0003F1E20E04AE85EE269E170E08BE590E064
:105400000E943F1E41E06EE170E084E390E00E9464
:10541000771ED3CF41E06FE170E0F7CF83E0809358
:1054200010041092A3021092A20284E18093A408B7
:1054300087E99FE20E94E51B0091A2021091A3025E
:105440000F5F1F4F1093A3020093A20280910D04DF
:10545000882319F0815080930D0420E044E85AE23B
:1054600070E060E090E080E00E943F1E043411058F
:105470000CF047C0003411050CF04FC020E00C3395
:1054800011050CF04BC088E00E949A18882319F08F
:1054900084E08093100484E00E949A18882339F0F5
:1054A00010920F0410920E048DE08093100480E897
:1054B0000E949A18811105C080E10E949A188823E1
:1054C00069F0809177088823A1F10E946C1E0E94E8
:1054D0009823F092880880E280930D0480910D0457
:1054E000882361F02091880881E028274EEC59E25A
:1054F00066E370E084E790E00E943F1E0E94512323
:10550000B3CE083411059CF00837110509F0BBCF64
:105510001092A3021092A202B6CF21E040EE59E20F
:1055200062E170E080E590E00E943F1EACCF22E097
:10553000F5CF0E94711E0E949823FF24F394C9CFD7
:1055400010920C041092A3021092A2021092160361
:105550008AE18093A40885E0809310040E94341BA4
:1055600080911004873009F4D0C180F4853009F4AB
:105570007AC0863009F41FC188E00E949A188823F7
:1055800009F4BCCF8BE080931004B8CF893009F4C4
:1055900013C308F460C28A3079F70091A202109117
:1055A000A302015011091093A3020093A20220E06C
:1055B0004CED58E26AE170E083E090E00E943F1E0B
:1055C000013611050CF4D1C3E12C00E02AE738E2E2
:1055D0004AEA58E26AE070E084E690E00E944F1EDA
:1055E000E12C00E02AE738E24AEA58E261E270E0A2
:1055F0008BE590E00E944F1EE12C00E02AE738E2A4
:105600004AEA58E261E270E08DE690E00E944F1EA7
:1056100060E081E00E948C2280E20E949A18882338
:10562000A1F01092A3021092A20289E080931004CC
:1056300010920C041092940388E0809395031092CA
:105640009603109297031092980380E40E949A1890
:10565000882309F491CF1092A3021092A202109213
:105660000C0488E095C010920A048091A0089091E3
:10567000A10866E070E00E94C136892B69F4809130
:10568000A2029091A30201968D35910509F483C081
:105690009093A3028093A2020091A2021091A30210
:1056A000F801E459FF4DE491E0931503F801E15F3F
:1056B000FF4DE491E0931603F801EE54F04EE491AF
:1056C000E093A00282E080939F0220E045E754E24D
:1056D00070E060E08AEB9FEF0E943F1EA6E2EA2E98
:1056E000F12CF8E1CF2ED12C41E0B601C7010E9488
:1056F0008F1E2FEFC21AD20A3EE1C316D104A1F7C2
:105700004FEFE41AF40A57E3E516F10451F78AEB78
:105710000E94102220910C044AEB66E672E0809110
:105720000A040E947A1F8BE30E94A4220B5A104E97
:10573000F8018491282F2150330BF901EE5AF04ED5
:10574000E49180E48093980880939708E093990807
:1057500010929A08F8010491023029F1033041F1C6
:1057600088E19FE1013009F120E04EE75EE16AE364
:1057700070E08BE790E00E943F1E80E40E949A1840
:10578000882309F4F9CE1092A3021092A20286E0B7
:1057900080931004F1CE1092A3021092A20286E030
:1057A0008093100479CF89ED9EE10E94431FDCCFE6
:1057B00084E89EE1FACF2091A2023091A30263E037
:1057C000213231050CF466E081E080930A0470E038
:1057D0008091A0089091A1080E94C136892B51F4B4
:1057E0002F5F3F4F2C34310509F47BC03093A30267
:1057F0002093A20260910C0486E40E946D22009125
:10580000A2021091A3020C3011050CF472C00031F9
:1058100011052CF0C8014E97049708F06AC0109249
:105820001503F801EE5CFD4DE491E093950381E0F2
:10583000043111050CF480E080939403F801EA51DF
:10584000FE4DE491E0936502F801E656FE4DF490BA
:10585000F0920C046F2D86E40E94C2216F2D86E425
:105860000E94D8206F2D86E40E9408216F2D86E4C7
:105870000E94512083E40E94A422025B1E4DF80185
:105880008491282F2150330BF901E55BFE4DE49103
:1058900082E08093980880939708E0939908F80134
:1058A0000491013051F1023069F16EE381E00E9410
:1058B0008C2280E20E949A18882339F01092A30269
:1058C0001092A20285E08093100480E40E949A184E
:1058D000882309F451CE1092A3021092A20287E00D
:1058E00057CF1092A3021092A20287E08093100477
:1058F00081CF81E08093150394CF8BE191E20E94E8
:10590000431FD3CF89EC90E2FACF10920A04809122
:10591000A0089091A10866E070E00E94C136892B32
:1059200069F48091A2029091A302019688339105B7
:1059300009F47FC09093A3028093A20220E045E780
:1059400054E270E060E08AEB9FEF0E943F1E06E2A7
:1059500010E0E8E1EE2EF12C41E0B701C8010E9411
:105960008F1EFFEFEF1AFF0A2EE1E216F104A1F7F6
:105970000F5F1F4F0733110561F78BE30E94A422CD
:105980008AEB0E948C208091A0089091A10863E08E
:1059900070E00E94C136892B21F487EE93E00E94CB
:1059A000CE228091A2029091A302825F9C4DFC01C5
:1059B0002491022F0150110BF801E55FFC4DE49199
:1059C00020E42093980820939708E0939908109278
:1059D0009A08FC0184918130B1F18230C9F16BE702
:1059E0008EE30E948C2280E20E949A18882339F06C
:1059F0001092A3021092A20286E08093100480E429
:105A00000E949A18882309F4B7CD1092A30210922D
:105A1000A20288E08093100410920C041092940368
:105A20008093950310929603109297031092980317
:105A3000A3CD1092A3021092A20210920C0488E04F
:105A4000809310047BCF82EC92E20E94431FC7CF69
:105A50008EE792E2FACF80910C048F5F80930C0462
:105A6000803571F40E94B83523E030E040E050E02A
:105A70000E945E3660939F021092A00210920C0466
:105A80008091A0089091A10866E070E00E94C13664
:105A9000892B69F48091A2029091A3020196843629
:105AA000910509F479C09093A3028093A20260E06B
:105AB00082E20E946D2280910B04811110C08091BE
:105AC000A0089091A10883709927892B41F484E65E
:105AD00090E00E94CE2286E692E00E94621F20E0C3
